:100000000C945E000C9486000C9486000C94860080
:100010000C9486000C9486000C9486000C94860048
:100020000C9486000C9486000C9486000C94860038
:100030000C9486000C9486000C9486000C94860028
:100040000C942E030C9486000C94FC020C94D602A3
:100050000C9486000C9486000C9486000C94860008
:100060000C9486000C948600000000080002010039
:100070000003040700000000000000000000000072
:10008000250028002B0000000000240027002A0083
:10009000040404040404040402020202020203032E
:1000A0000303030301020408102040800102040836
:1000B00010200102040810207803170611241FBE27
:1000C000CFEFD8E0DEBFCDBF11E0A0E0B1E0ECE6BD
:1000D000F1E102C005900D92AC35B107D9F722E0ED
:1000E000ACE5B1E001C01D92A834B207E1F710E021
:1000F000CDE5D0E004C02197FE010E946706CC3513
:10010000D107C9F70E94C0030C94A9080C94000001
:1001100090E0FC01EC55FF4F2491FC01E057FF4FAC
:100120008491882399F090E0880F991FFC01EA5789
:10013000FF4FA591B491FC01E458FF4F8591949134
:100140008FB7F894EC91E22BEC938FBF0895CF9288
:10015000DF92EF92FF920F931F93CF93DF936C0187
:100160007A018B01C0E0D0E0CE15DF0589F0D8011F
:100170006D918D01D601ED91FC910190F081E02D02
:10018000C6010995892B11F47E0102C02196ECCF9E
:10019000C701DF91CF911F910F91FF90EF90DF90FA
:1001A000CF900895FC01918D828D981761F0828D1A
:1001B000DF01A80FB11D5D968C91928D9F5F9F739B
:1001C000928F90E008958FEF9FEF0895FC01918D3D
:1001D000828D981731F0828DE80FF11D858D90E0AA
:1001E00008958FEF9FEF0895FC01918D228D892F47
:1001F00090E0805C9F4F821B91098F73992708952F
:1002000088E691E00E94F40021E0892B09F420E0C7
:10021000822F0895FC01848DDF01A80FB11DA35A20
:10022000BF4F2C91848D90E001968F739927848F16
:10023000A689B7892C93A089B1898C9180648C930D
:10024000938D848D981306C00288F389E02D8081F8
:100250008F7D80830895EF92FF920F931F93CF932A
:10026000DF93EC0181E0888F9B8D8C8D981305C006
:10027000E889F989808185FD24C0F62E0B8D10E078
:100280000F5F1F4F0F731127E02E8C8DE8120CC0EB
:100290000FB607FCFACFE889F989808185FFF5CF91
:1002A000CE010E940A01F1CF8B8DFE01E80FF11DF6
:1002B000E35AFF4FF0820B8FEA89FB8980818062CD
:1002C00007C0EE89FF896083E889F98980818064AD
:1002D000808381E090E0DF91CF911F910F91FF909B
:1002E000EF900895CF93DF93EC01888D8823C9F0B8
:1002F000EA89FB89808185FD05C0A889B9898C912F
:1003000086FD0FC00FB607FCF5CF808185FFF2CFC9
:10031000A889B9898C9185FFEDCFCE010E940A0191
:10032000E7CFDF91CF91089580E090E0892B29F00D
:100330000E94000181110C940000089590E0FC01DE
:10034000E859FF4F3491FC01EC55FF4F2491FC011B
:10035000E057FF4FE491EE2309F43BC0332339F11A
:10036000333091F038F43130A9F0323001F584B5F2
:100370008F7D12C0373091F03830A1F03430B9F4AD
:10038000809180008F7D03C0809180008F77809363
:1003900080000DC084B58F7784BD09C08091B00006
:1003A0008F7703C08091B0008F7D8093B000F0E024
:1003B000EE0FFF1FE458FF4FA591B4918FB7F8944B
:1003C000EC91611103C020952E2301C02E2B2C939C
:1003D0008FBF08951F93CF93DF93182FEB010E94D7
:1003E0008800209711F460E004C0CF3FD10539F4B4
:1003F00061E0812FDF91CF911F910C949E01E12F3D
:10040000F0E0E859FF4FE491E330F9F048F4E130CF
:10041000B9F0E230A1F584B5806284BDC8BD34C0B6
:10042000E730E9F0E83019F1E43049F580918000D7
:10043000806280938000D0938B00C0938A0024C098
:1004400084B5806884BDC7BD1FC08091800080686E
:1004500080938000D0938900C093880015C080915C
:10046000B00080688093B000C093B3000DC080914D
:10047000B00080628093B000C093B40005C0C03863
:10048000D1050CF0B5CFAFCFDF91CF911F9108957B
:100490003FB7F8948091610190916201A09163014E
:1004A000B091640126B5A89B05C02F3F19F00196B5
:1004B000A11DB11D3FBFBA2FA92F982F8827820FEA
:1004C000911DA11DB11DBC01CD0142E0660F771F3A
:1004D000881F991F4A95D1F708958EBD00000DB46D
:1004E00007FEFDCF8EB508951F93CF93DF938091C4
:1004F0003A028823A9F0E0913C0291E09E0F90938C
:100500003C02F0E0EE0FFF1FEB5FFD4F35892689BF
:10051000815080933A029031C9F410923C0216C087
:1005200090911702992319F1E091190281E08E0F41
:1005300080931902F0E0EB5FFD4F12819150909390
:100540001702803131F41092190203C0832F922FC9
:1005500015C08BE50E946D02282F30E0D22FCC27EA
:10056000812F0E946D029E01282BC90107C08AE5D8
:100570000E946D02282F30E010E0F0CFDF91CF9184
:100580001F910895009769F0FC0101900020E9F7A0
:100590003197AF01481B590BBC0188E691E00C94E0
:1005A000A70080E090E008950E9464081F920F92D7
:1005B0000FB60F9211242F933F934F935F936F9336
:1005C0007F938F939F93AF93BF93EF93FF9388E6AF
:1005D00091E00E940A01FF91EF91BF91AF919F912D
:1005E0008F917F916F915F914F913F912F910F90DC
:1005F0000FBE0F901F9018951F920F920FB60F927B
:1006000011242F938F939F93EF93FF93E0917801A1
:10061000F09179018081E0917E01F0917F0182FD6E
:1006200012C09081809181018F5F8F732091820130
:10063000821751F0E0918101F0E0E859FE4F958F6B
:100640008093810101C08081FF91EF919F918F91F3
:100650002F910F900FBE0F901F9018951F920F9221
:100660000FB60F9211242F933F938F939F93AF93C5
:10067000BF9380915D0190915E01A0915F01B09167
:10068000600130915C0123E0230F2D3720F40196A7
:10069000A11DB11D05C026E8230F0296A11DB11DA5
:1006A00020935C0180935D0190935E01A0935F01B4
:1006B000B09360018091610190916201A09163010A
:1006C000B09164010196A11DB11D809361019093C9
:1006D0006201A0936301B0936401BF91AF919F91B8
:1006E0008F913F912F910F900FBE0F901F901895F3
:1006F000CF93DF93E8E6F1E01382128288EE93E075
:10070000A0E0B0E084839583A683B7838AE091E07C
:100710009183808385EC90E09587848784EC90E0DA
:100720009787868780EC90E0918B808B81EC90E0BE
:10073000938B828B82EC90E0958B848B86EC90E09F
:10074000978B868B118E128E138E148EC5E0D2E09D
:100750001A8A1B8A1C8A1DAA1EAA1FAA18AE1CAEC2
:100760001BAE8EE190E0909343028093420288E6B4
:1007700091E00E946D0699838883DF91CF9108955F
:10078000CF93DF93CDB7DEB7A2970FB6F894DEBF55
:100790000FBECDBF789484B5826084BD84B581607E
:1007A00084BD85B5826085BD85B5816085BD80913C
:1007B0006E00816080936E001092810080918100B4
:1007C00082608093810080918100816080938100AC
:1007D000809180008160809380008091B10084606E
:1007E0008093B1008091B00081608093B0008091CF
:1007F0007A00846080937A0080917A00826080938E
:100800007A0080917A00816080937A0080917A00EA
:10081000806880937A001092C10083E00E94880073
:100820008BE00E9488008CE00E9488008DE00E948E
:10083000880060E070E083E00E94EA0160E070E020
:100840008BE00E94EA01E0917801F091790182E069
:100850008083E0917401F09175011082E09176013E
:10086000F09177018FEC808310928001E0917C0100
:10087000F0917D0186E08083E0917A01F0917B0127
:10088000808180618083E0917A01F0917B01808199
:1008900088608083E0917A01F0917B01808180689B
:1008A0008083E0917A01F0917B0180818F7D80834C
:1008B00086E191E00E94C202FFB6F8948091650142
:1008C000811124C0EAE9F0E08491EEEAF0E094912D
:1008D000E82FF0E0EE0FFF1FEA57FF4FA591B4910C
:1008E000EC91E92321F461E08AE00E949E018AE014
:1008F0000E9488008CB580618CBD8CB580648CBDF5
:100900008DE00E9488008BE00E9488008091650144
:100910008F5F80936501FFBE8CB58C7F81608CBD3D
:100920008DB58E7F8DBD2AE0422E512C612C712C0D
:1009300080913D02811142C0CC24CA94DC2C0E94DB
:1009400074027C01009759F4CD2811F06701F7CFAC
:1009500083E290E00197F1F700E010E065C1853592
:100960009A4A51F445E5C4164AEAD40679F710923A
:100970003F0210923E0224C086E5E8168AEAF80695
:1009800061F495E5C9169AEAD90601F7E1E0F0E0CD
:10099000F0933F02E0933E0213C0FAEAEF16F5E54A
:1009A000FF06A1F683E291E00E94C2028BE291E091
:1009B0000E94C20280E00E946D02C8CF10923D02E8
:1009C00010924102109240028091400290914102A7
:1009D0008238910508F09DC00E9474027C0120912C
:1009E00040023091410285359A4A41F481E080937A
:1009F0003D0210923F0210923E0212C086E5E816B8
:100A00008AEAF80651F481E080933D02E1E0F0E0EB
:100A1000F0933F02E0933E0203C0E114F10411F4AD
:100A2000890177C080914202909143028217930717
:100A3000A8F44E969093430280934202FCE0F89F04
:100A4000B001F99F700D112480910502909106026A
:100A50000E949A079093060280930502209140021B
:100A6000309141024CE0429FC001439F900D112400
:100A7000C0900502D0900602C80ED91E1601812C26
:100A8000912C20E080913E0290913F02892B31F41D
:100A9000253021F4F601138612860DC02AA30E9488
:100AA0007402880E991EF101819391931F012AA16E
:100AB0002F5F263039F7E814F90451F48091400291
:100AC000909141020196909341028093400208C0A8
:100AD0008EE291E00E94C2028BE291E00E94C2028B
:100AE0000E9474028535FAEA9F0729F410923F02AA
:100AF00010923E0269CF86359A4A39F481E090E03F
:100B000090933F0280933E025FCF0091400210918C
:100B100041020115110509F487C080916601909189
:100B2000670101969093670180936601E091050249
:100B3000F09106022281338140E050E019A2FE01CB
:100B4000B1967F01CA01B901A30192010E94310649
:100B5000605DF70162937F01211531054105510563
:100B600089F7CF010E94C20287E391E00E94C2028E
:100B7000809166019091670162E370E00E941D061A
:100B8000892B61F5E0910502F09106028281938143
:100B90008C38910550F48AE391E00E94C20261E032
:100BA0008CE00E949E0160E00CC0813A9105B0F09B
:100BB0008BE491E00E94C20260E08CE00E949E0102
:100BC00061E08DE00E949E0161E470E083E00E949C
:100BD000EA0161E470E08BE00E94EA010E944802B1
:100BE0004B015C0184E6C82ED12CE12CF12C0E9433
:100BF0004802DC01CB0188199909AA09BB09883E82
:100C00009340A105B10558F0F1E0CF1AD108E108F1
:100C1000F10828EE820E23E0921EA11CB11CC11423
:100C2000D104E104F10419F70E94940181CE80916E
:100C30000502909106020C94020797FB072E16F40A
:100C4000009407D077FD09D00E94530607FC05D019
:100C50003EF4909581959F4F0895709561957F4FD3
:100C60000895A1E21A2EAA1BBB1BFD010DC0AA1FED
:100C7000BB1FEE1FFF1FA217B307E407F50720F005
:100C8000A21BB30BE40BF50B661F771F881F991F80
:100C90001A9469F760957095809590959B01AC01C9
:100CA000BD01CF010895AA1BBB1B51E107C0AA1FBC
:100CB000BB1FA617B70710F0A61BB70B881F991FFD
:100CC0005A95A9F780959095BC01CD010895EE0F36
:100CD000FF1F0590F491E02D0994CF93DF938230AC
:100CE000910510F482E090E0E0914602F091470215
:100CF00020E030E0C0E0D0E0309711F14081518138
:100D000048175907C0F04817590761F48281938149
:100D1000209719F09B838A832BC09093470280937E
:100D2000460226C02115310519F04217530718F461
:100D30009A01BE01DF01EF010280F381E02DDCCFDB
:100D40002115310509F1281B390B2430310590F4A8
:100D500012968D919C9113976115710521F0FB01FD
:100D60009383828304C09093470280934602FD01DF
:100D7000329644C0FD01E20FF31F819391932250FC
:100D800031092D933C933AC02091440230914502A1
:100D9000232B41F42091020130910301309345024D
:100DA0002093440220910001309101012115310569
:100DB00041F42DB73EB74091040150910501241B29
:100DC000350BE0914402F0914502E217F307A0F4DD
:100DD0002E1B3F0B2817390778F0AC014E5F5F4F91
:100DE0002417350748F04E0F5F1F5093450240937C
:100DF00044028193919302C0E0E0F0E0CF01DF91E3
:100E0000CF9108950F931F93CF93DF93009709F429
:100E10008CC0FC013297138212820091460210911D
:100E200047020115110581F420813181820F931F42
:100E300020914402309145022817390779F5F09343
:100E40004502E093440271C0D80140E050E0AE1783
:100E5000BF0750F412962D913C911397AD012115C7
:100E6000310509F1D901F3CF9D01DA0133832283E2
:100E700060817181860F971F8217930769F4EC01D7
:100E800028813981260F371F2E5F3F4F3183208302
:100E90008A819B8193838283452B29F4F0934702B7
:100EA000E093460242C01396FC93EE931297ED0135
:100EB000499159919E01240F351FE217F30771F4F0
:100EC00080819181840F951F029611969C938E9339
:100ED0008281938113969C938E931297E0E0F0E0C9
:100EE000D80112968D919C911397009719F0F801F3
:100EF0008C01F6CF8D919C9198012E5F3F4F820F10
:100F0000931F20914402309145022817390769F454
:100F1000309729F4109247021092460202C01382C1
:100F200012821093450200934402DF91CF911F91EA
:100F30000F910895A0E0B0E0E0EAF7E00C947608A5
:100F4000EC01009721F4CB010E946D06B8C0FC01B2
:100F5000E60FF71F9C0122503109E217F30708F44E
:100F6000ACC0D9010D911C91119706171707B0F06D
:100F70000530110508F49FC0C8010497861797072C
:100F800008F499C002501109061B170B0193119325
:100F90006D937C93CF010E9402078DC05B01A01A64
:100FA000B10A4C01800E911EA0914602B0914702F9
:100FB00040E050E0E12CF12C109709F44AC0A8154C
:100FC000B905D1F56D907C901197630182E0C80E50
:100FD000D11CCA14DB0480F1A3014A195B096A0120
:100FE00082E0C80ED11C1296BC9012971396AC9159
:100FF000B5E0CB16D10440F0B282A3835183408385
:10100000D9016D937C930AC00E5F1F4FC301800FFF
:10101000911FF90191838083EB2DFA2FE114F104E4
:1010200031F0D7011396FC93EE93129744C0F093DE
:101030004702E09346023FC08D919C91119748175B
:10104000590708F4AC017D0112960D90BC91A02DBA
:10105000B3CF809144029091450288159905E1F43F
:1010600046175707C8F4809100019091010100973D
:1010700041F48DB79EB74091040150910501841B46
:10108000950BE817F907C8F4F0934502E093440282
:10109000F901718360830FC0CB010E946D067C0152
:1010A000009759F0A801BE010E946908CE010E9474
:1010B0000207C70104C0CE0102C080E090E0CDB7B6
:1010C000DEB7EEE00C94920881E090E0F8940C9486
:1010D000A908FB01DC0102C001900D924150504073
:1010E000D8F708952F923F924F925F926F927F921E
:1010F0008F929F92AF92BF92CF92DF92EF92FF9228
:101100000F931F93CF93DF93CDB7DEB7CA1BDB0BD3
:101110000FB6F894DEBF0FBECDBF09942A88398878
:1011200048885F846E847D848C849B84AA84B9847F
:10113000C884DF80EE80FD800C811B81AA81B9818B
:10114000CE0FD11D0FB6F894DEBF0FBECDBFED019F
:10115000089510E0CDE5D0E004C0FE010E946706CE
:0C1160002196CE35D107C9F7F894FFCFD7
:10116C00000048028000000000002B01A700F400E2
:10117C00D200E60072015374617274696E67E2808A
:10118C00A60A0072656F72646572000D0A006373C3
:10119C00206572726F7200200A00416C6C657220BF
:1011AC00C3A0206761756368650A00416C6C657249
:0C11BC0020C3A02064726F6974650A00F3
:107E0000112484B714BE81FFF0D085E080938100F7
:107E100082E08093C00088E18093C10086E0809377
:107E2000C20080E18093C4008EE0C9D0259A86E02C
:107E300020E33CEF91E0309385002093840096BBD3
:107E4000B09BFECF1D9AA8958150A9F7CC24DD24C4
:107E500088248394B5E0AB2EA1E19A2EF3E0BF2EE7
:107E6000A2D0813461F49FD0082FAFD0023811F036
:107E7000013811F484E001C083E08DD089C08234E0
:107E800011F484E103C0853419F485E0A6D080C0E4
:107E9000853579F488D0E82EFF2485D0082F10E0AE
:107EA000102F00270E291F29000F111F8ED06801E7
:107EB0006FC0863521F484E090D080E0DECF843638
:107EC00009F040C070D06FD0082F6DD080E0C81688
:107ED00080E7D80618F4F601B7BEE895C0E0D1E017
:107EE00062D089930C17E1F7F0E0CF16F0E7DF06D8
:107EF00018F0F601B7BEE89568D007B600FCFDCFD4
:107F0000A601A0E0B1E02C9130E011968C91119780
:107F100090E0982F8827822B932B1296FA010C0160
:107F200087BEE89511244E5F5F4FF1E0A038BF0790
:107F300051F7F601A7BEE89507B600FCFDCF97BE46
:107F4000E89526C08437B1F42ED02DD0F82E2BD052
:107F50003CD0F601EF2C8F010F5F1F4F84911BD097
:107F6000EA94F801C1F70894C11CD11CFA94CF0C13
:107F7000D11C0EC0853739F428D08EE10CD085E9AC
:107F80000AD08FE07ACF813511F488E018D01DD067
:107F900080E101D065CF982F8091C00085FFFCCF94
:107FA0009093C60008958091C00087FFFCCF809118
:107FB000C00084FD01C0A8958091C6000895E0E648
:107FC000F0E098E1908380830895EDDF803219F02E
:107FD00088E0F5DFFFCF84E1DECF1F93182FE3DFCA
:107FE0001150E9F7F2DF1F91089580E0E8DFEE27F6
:047FF000FF270994CA
:027FFE00040479
:0400000300007E007B
:00000001FF
